:1000000012C021C020C01FC04BC01DC01CC01BC0DF
:100010001AC019C018C00020406080A0C0E0FFE0F6
:10002000C0A08060402011271FBFCFE5D0E0DEBF19
:10003000CDBF20E0A0E4B0E001C01D93A634B2071C
:10004000E1F763D1D2C1DCCF40ED4A95F1F7000072
:10005000039BFECF40ED4A95F1F70000089512B9D9
:1000600011B9F2DF45E04ABF48E040BB41E042BB86
:100070008895089542A14E7F42A9F894E0A1F1A18C
:1000800090E069E170E076D18E0F9F1F95A984A959
:10009000789442A140FD08950399FBCFE0DFF9CFAA
:1000A0001F931FB71F9310E04F935F936F937F933E
:1000B000EF93FF9340A151A14F5F5F4F51A940A91A
:1000C00060A171A144A155A16417750719F442A15B
:1000D000416042A963A1462F4770B9F0E0A1F1A1A8
:1000E0004150550B02C0F695E7954A95E2F7EF703F
:1000F000FF2748E050E066FD02C050E040E0EA5EC5
:10010000FF4BE40FF51F408146BD43A1542F5873A8
:10011000B9F0E0A1F1A150E063E0559547956A95EB
:10012000E1F7477055274150510B02C0F695E7950E
:100130004A95E2F7EF70FF27EA5EFF4B408144BD2E
:10014000FF91EF917F916F915F914F911F911FBF31
:100150001F91189587FD09C090E06FEF70E00AD1FC
:1001600064E670E019D166BD089543A1842B83A98C
:100170000895682F70E087FD09C0972F6FEF70E03A
:10018000F9D064E670E008D164BD0895807443A19D
:10019000482B972F862F53E0880F991F5A95E1F728
:1001A000842B83A908952F933F93CF93DF9300D09F
:1001B000CDB7DEB7282FCF5FDF4F6883C150D04067
:1001C000842F13A9322F3170422F4270CE5FDF4F40
:1001D0004883C250D04022FD1DC0332311F0BADF46
:1001E00030E8CE5FDF4F4881C250D040442329F031
:1001F0003062CF5FDF4F8881BCDF11B922B9316037
:100200003EBD47E041B90F910F91DF91CF913F91F2
:100210002F91089531130BC09DDF30ECCE5FDF4F7F
:100220004881C250D0404113E8CF3063E2CF30E084
:10023000F5CF462FB8CF44E664E6B5CF85E0FBDFC7
:100240008AE018DF64E885E0F4DF8EE113DF83E005
:10025000F2DF85E00FDF63EC83E0EBDF84E10ADFB0
:1002600085E0E9DF8AE006DF64E885E0E2DF8EE131
:1002700001DF83E0E0DF85E0FDDE63E883E0D9DFD6
:100280008EE1F8DE62E885E0D4DF8AE0F3DE83E029
:10029000D2DF85E0EFDE63E883E0CBDF8AE0EADEF1
:1002A00042E863E883E07FDF84E1E4DE43E862E87C
:1002B00083E079DF84E1DEDE83E0BDDF85E0DADE46
:1002C00063E885E0B6DF8FE0D5DE62E885E0B1DF88
:1002D0008FE0D0DE61E885E0ACDF8AE0CBDE41E88C
:1002E00063E884E060DF84E1C5DE62E885E0A1DFE9
:1002F00085E0C0DE41E863E884E055DF84E1BADEF2
:1003000063E885E096DF8EE1B5CEF8944AB74E7F7C
:100310004ABF48ED4CBF47E046BF12BB10BB47BBCE
:1003200040E84FBB48E043B94EEF45BF49E04DBD03
:1003300041E04BBD12A940A151A142515D4F55A9C9
:1003400044A9789440ED4A95F1F7000042A140FDA0
:1003500002C0039BFBCF42A140FF05C042A1426007
:1003600042A986E068DF70DE69DF42A141FDFCCF73
:1003700076DEFACF0027552704C0080F591F880FD3
:10038000991F8050904029F076956795B0F37107DA
:10039000B1F7802F952F089597FB072F16F400953E
:1003A00006D077FD08D00BD007FD05D03EF4909520
:1003B00081959F4F0895709561957F4F0895AA1B71
:1003C000BB1B51E107C0AA1FBB1FA617B70710F040
:1003D000A61BB70B881F991F5A95A9F78095909572
:0E03E000682F792F8A2F9B2F0895F894FFCF56
:00000001FF
